:100000000A128A11FC2F00308A000408840A820731
:100010000034483461347234643477346134723477
:100020006534203469347334203442346534733495
:100030007434203474346F346F346C342034663448
:100040006F34723420344D344534003453346F34BB
:0E0050006634743477346134723465340034AD
:100DDC00831603138601071087100A128A119427B1
:100DEC000A128A110800F3007018FD2E012F8312CD
:100DFC0003130714042F83120313071073088600C0
:100E0C008714A630F100F10B092F00008312031395
:100E1C0087101B30F2009E30F100F10B132FF20BF8
:100E2C00132F00000800F00175080A128A11F92628
:100E3C000A128A11312FF001F00A740884000A1288
:100E4C008A1103200A128A110A128A11F9260A122F
:100E5C008A110130F407740884000A128A110320E5
:100E6C000A128A11003A031D3C2F3D2F212F080036
:100E7C000A128A11EE260A128A110130F40080300F
:100E8C00F5000A128A1119270A128A111E30F40071
:100E9C00C030F5000A128A1119270A128A1104307F
:100EAC000A128A1168270A128A114130FB00EE30AF
:100EBC00FA00FA0B5F2FFB0B5F2F0000552F0A1265
:100ECC008A110028F700F801F901862FF00118307B
:100EDC000A128A11F9260A128A110630F60013300A
:100EEC00F500AD30F400F40B792FF50B792FF60BE0
:100EFC00792F802F0130F8070318F90A0030F90711
:100F0C007908803AF40080307402031D8F2F770823
:100F1C007802031C922F932F6C2F0800C330F5001E
:100F2C00CD30F400F40B982FF50B982FF0013030E6
:100F3C000A128A11F9260A128A116830F60000305A
:100F4C00F5001830F400F40BA92FF50BA92FF60BB4
:100F5C00A92FB02F0000F00130300A128A11F926A7
:100F6C000A128A11A630F400F40BBA2F0000F0011B
:100F7C0030300A128A11F9260A128A11C52FC62F8F
:100F8C000000F00138300A128A11F9260A128A116F
:100F9C000430F5003D30F400F40BD22FF50BD22FBA
:100FAC00D72FF0010F300A128A11F9260A128A1172
:100FBC000430F5003D30F400F40BE22FF50BE22F7A
:100FCC00E72FF00101300A128A11F9260A128A1150
:100FDC000630F6001330F500AD30F400F40BF42FAE
:100FEC00F50BF42FF60BF42FFB2F080083010A12DC
:040FFC008A113E2FE9
:08400000FF3FFF3FFF3FFF3FC0
:02400E00FB3F76
:00000001FF
