:060000000A128A11F62F1E
:100F3E0001348316031306083F3886000800831217
:100F4E00031388018316031388010A128A11A0273E
:100F5E000A128A1108000A128A11A6270A128A1189
:100F6E0000300A128A11CC270A128A11F2003F3081
:100F7E0072060319C32FC42FB72F720883120313DF
:100F8E008800B72F0A128A110028F1007108031D7C
:100F9E00D12FD22FD72F8312031306083F39F52FE7
:100FAE003F30831203130605F0003F30700603191D
:100FBE00E12FE22FE92F73080319E62FE72FE92F10
:100FCE00F301D22F3F300605F0003F307006031DAF
:100FDE00F12FF22FF42F0130F3003F3008000A12E8
:100FEE008A119F270A128A11F30083010A128A11AD
:020FFE00B22F10
:08400000FF3FFF3FFF3FFF3FC0
:02400E00FB3F76
:00000001FF
