:060000000A128A11FC2F18
:100F180083120313860183160313061108000A12AD
:100F28008A118C270A128A118312031306110030C2
:100F3800F7000F30F6004230F5004030F400C02FC3
:100F48000130F0000030F1000030F2000030F30012
:100F58007008F4027108031C710FB32FB42FF50247
:100F68007208031C720FB92FBA2FF6027308031CFC
:100F7800730FBF2FC02FF702770876047504740427
:100F8800031DC72FC82FA42F831203130615003083
:100F9800FB000F30FA004230F9004030F800F02F23
:100FA8000130F0000030F1000030F2000030F300B2
:100FB8007008F8027108031C710FE32FE42FF9027F
:100FC8007208031C720FE92FEA2FFA027308031C38
:100FD800730FEF2FF02FFB027B087A047904780453
:100FE800031DF72FF82FD42F982F0A128A110028E3
:080FF80083010A128A11932FF4
:02400E00FB3F76
:00000001FF
