:060000000A128A11EE2F26
:100C72000A128A1149260A128A1108003F340634E0
:100C82005B344F3466346D347D3407347F346F34D3
:100C9200831203138801831603138801050803399D
:100CA20085008312031305080339850008007E08B6
:100CB2008A007F0882000A128A1158260A128A11B3
:100CC2008000840A04087D0603190034FF0A031910
:100CD200FE0A5C2EF90179087007F10071088400A0
:100CE200831300088312031388000430F100790A89
:100CF2007C2E0310F10DFF3E031D7A2E05080339E9
:100D0200710485000030F8000030F7000130F60071
:100D12009030F5000130F1000030F2000030F300B5
:100D22000030F4007108F5027208031C720F9A2E4B
:100D32009B2EF6027308031C730FA02EA12EF7023E
:100D42007408031C740FA62EA72EF802750A031D41
:100D5200B42E760A031DB42E770A031DB42E780A28
:100D6200031DB42EB52E8B2E0130F9070230790205
:100D7200031CBC2EBD2E6C2E0800F501F31FC22EE3
:100D8200C32ECA2EF209F309F20A0319F30A01303B
:100D9200F500F11FCD2ECE2ED32EF009F109F00A67
:100DA2000319F10A700871040319D82ED92E062FDF
:100DB2000130F400E52E01300310F00DF10DFF3E7D
:100DC200031DDD2E0130F407F11FE82EE92EDC2E83
:100DD20071087302031DEF2E70087202031CF22EBB
:100DE200F32EF92E7008F2027108031CF303F302CA
:100DF20001300310F10CF00CFF3E031DFA2E0130FE
:100E0200F402031D052F062FE92E750803190A2F78
:100E12000B2F102FF209F309F20A0319F30A7308D0
:100E2200F1007208F0000800F501F11F192F1A2FC6
:100E3200212FF009F109F00A0319F10A0130F50036
:100E4200F31F242F252F2C2FF209F309F20A03197D
:100E5200F30A0130F506F601F7017008710403196F
:100E6200332F342F692F0130F400402F013003104B
:100E7200F00DF10DFF3E031D382F0130F407F11F75
:100E8200432F442F372F01300310F60DF70DFF3E8D
:100E9200031D452F71087302031D512F7008720242
:100EA200031C542F552F5C2F7008F2027108031C8B
:100EB200F303F302761401300310F10CF00CFF3E41
:100EC200031D5D2F0130F402031D682F692F442F8B
:100ED200750803196D2F6E2F732FF609F709F60A9D
:100EE2000319F70A7708F1007608F0000800831268
:100EF2000313AE012F3084002030FA000A30FB00C9
:100F020083130008FC00040AFD007A0884007C08B0
:100F12008000040AFA007D088400FB0B812F0A126C
:100F22008A1139260A128A110A30F0000030F100C3
:100F3200831203132E08FA00FB017A08F2007B08E1
:100F4200F3000A128A1115270A128A117008203E2C
:100F520084008313000883120313AA000A30F000EE
:100F62000030F1002E08FA00FB017A08F2007B083B
:100F7200F3000A128A11BE260A128A117008203E54
:100F820084008313000883120313AB00AC01AD018C
:100F92002A30F0000A128A116B260A128A110130D5
:100FA20083120313AC070318AD0A0030AD070030FB
:100FB2002D02C83003192C02031CE02FE12FC92F88
:100FC2000130AE0764302E06031DE82FE92F952F5E
:100FD200AE01952F0A128A11002883133930FD00C1
:100FE2000630FE003F30FF002F3084000A128A11C3
:0E0FF2005C260A128A1183010A128A11782FD6
:08400000FF3FFF3FFF3FFF3FC0
:02400E00FB3F76
:00000001FF
