:060000000A128A11EE2F26
:100F160083120313860183160313860108003F34E8
:100F260006345B344F3466346D347D3407347F3495
:100F36006F3480347E088A007F0882000A128A1184
:100F46009D270A128A118000840A04087D06031967
:100F56000034FF0A0319FE0AA12F0A128A118B27F1
:100F66000A128A112C3084002030F0000B30F10078
:100F760083130008F200040AF30070088400720864
:100F86008000040AF00073088400F10BBB2F831263
:100F96000313AB012B08203E84008313000986004F
:100FA6001A30F2005E30F1006E30F000F00BD92FEF
:100FB600F10BD92FF20BD92F000001308312031346
:100FC600AB070B302B02031CE92FEA2FCD2FCA2FBC
:100FD6000A128A11002883133730FD000730FE00FD
:100FE6009230FF002C3084000A128A11A1270A12BF
:0A0FF6008A1183010A128A11B02F3C
:08400000FF3FFF3FFF3FFF3FC0
:02400E00FB3F76
:00000001FF
