:060000000A128A11FC2F18
:100F420083120313880183160313880108000A120F
:100F52008A11A1270A128A11F3010130F000730AE3
:100F6200B42F0310F00DFF3E031DB22F7008831241
:100F72000313080488000D30F200AF30F100B630E0
:100F8200F000F00BC22FF10BC22FF20BC22F0000A8
:100F92000130F30708307302031CD02FD12FAE2F7C
:100FA2000830F4000130F0007408FF3E013EDB2FF0
:100FB2000310F00DFF3E031DD92F7008FF3A831274
:100FC2000313080588000D30F200AF30F100B6308F
:100FD200F000F00BEA2FF10BEA2FF20BEA2F0000E0
:100FE2000130F4027408031DF72FF82FD32FAD2F11
:0E0FF2000A128A11002883010A128A11A82F00
:02400E00FB3F76
:00000001FF
